:100000000C9464000C948C000C948C000C948C0068
:100010000C948C000C948C000C948C000C948C0030
:100020000C948C000C948C000C948C000C94FE01AD
:100030000C948C000C948C000C948C000C948C0010
:100040000C943F0A0C948C000C94210D0C94530DCD
:100050000C948C000C948C000C948C000C948C00F0
:100060000C9414060C948C0000000008000201009F
:100070000003040700000000000000000102040863
:100080001020408001020408102001020408102002
:10009000040404040404040402020202020203032E
:1000A00003030303000000002300260029000000D2
:1000B0000000250028002B0000000000240027007D
:1000C0002A00B7002A05830D11241FBECFEFD8E008
:1000D000DEBFCDBF11E0A0E0B1E0ECE3F1E202C091
:1000E00005900D92A034B107D9F722E0A0E4B1E069
:1000F00001C01D92AA3EB207E1F710E0C8ECD0E0C3
:1001000004C02297FE010E948910C23CD107C9F7A2
:100110000E941E0F0C949C100C94000061E082E081
:100120000E94440B60E082E00E947D0B26E040E8E4
:1001300055E260E070E08DE492E00E94BF0C61E067
:100140008EE00C94440B61E08EE00E947D0B6AEF20
:1001500070E080E090E00E94B80A60E08EE00E94CB
:100160007D0B6AEF70E080E090E00C94B80A8BE4BD
:1001700091E00E94C70841E050E06BEE70E086E439
:1001800091E00E94990780E491E00E94BA0283E422
:1001900091E00C94BA020F931F93CF93DF93CDB7E6
:1001A000DEB72C970FB6F894DEBF0FBECDBF8DE43F
:1001B00092E00E94DC0B181619060CF014C160E0E6
:1001C0008EE00E947D0B8DE492E00E94F50B84315D
:1001D000910509F4E5C064F48F30910509F4AFC0CE
:1001E0008031910509F4C1C00E9709F0F9C08DC0A6
:1001F0008A3A910509F447C08B3A910509F453C036
:100200004E9709F0EDC00E94A3008BE491E00E949C
:1002100014090E94A30080914B0190914C01A09180
:100220004D01B0914E0189839A83AB83BC83809149
:100230004F0190915001A0915101B09152018D83D5
:100240009E83AF83B8878091530190915401A09110
:100250005501B091560189879A87AB87BC870E9468
:10026000A300E0914D02F0914E020280F381E02D57
:100270004CE050E0BE016F5F7F4F8DE492E0099546
:100280000E94A30094CF61E082E00E947D0BE09188
:100290004D02F0914E020190F081E02D6AEA8DE46A
:1002A00092E0099529C08DE492E00E94DC0B03974F
:1002B000D4F343E050E0BE016F5F7F4F8DE492E0E6
:1002C0000E94B30E8A819981890F9B81890F8F7754
:1002D0008C8361E082E00E947D0BE0914D02F09101
:1002E0004E020280F381E02D44E050E0BE016F5FDA
:1002F0007F4F8DE492E009958DE492E00E94380CE6
:1003000060E082E00E947D0B52CF8DE492E00E947B
:10031000DC0B18161906CCF78DE492E00E94F50B61
:100320009C01220F331FF901E65FFE4F608171814E
:10033000820F931F805C9E4F0E94540338CF8DE440
:1003400092E00E94DC0B18161906CCF78DE492E0BF
:100350000E94F50B9C01220F331F280F391FC90182
:10036000805C9E4F0E945A0322CF8DE492E00E944F
:10037000DC0B0297D4F38DE492E00E94F50B8C0124
:100380008DE492E00E94F50B9801220F331F200F9D
:10039000311FBC01C901805C9E4F0E949B0307CFA7
:1003A0008E01095F1F4F9E012B5F3F4FAE014D5FD6
:1003B0005F4FBE016F5F7F4F86E491E00E944F0860
:1003C000E0914D02F0914E020280F381E02D48E071
:1003D00050E0BE016F5F7F4F8DE492E00995E7CE5C
:1003E00061E08EE08FCF2C960FB6F894DEBF0FBE83
:1003F000CDBFDF91CF911F910F9108951F920F9262
:100400000FB60F9211242F933F934F935F936F93E7
:100410007F938F939F93AF93BF93EF93FF938091BD
:100420005F0187FF05C010928500109284001AC0FA
:1004300020915F01332727FD309580915E0190E088
:10044000281739077CF480915F01992787FD9095E3
:10045000FC01EE0FFF1FE80FF91FE05AFE4F8081ED
:1004600086FD15C080915F018F5F80935F012091B1
:100470005F01332727FD309580915E0190E02817BA
:100480003907BCF480915F018C305CF112C080911F
:100490005F01992787FD9095FC01EE0FFF1FE80F84
:1004A000F91FE05AFE4F808160E08F730E947D0B40
:1004B000D9CF8091840090918500049680349C4926
:1004C00018F480E49CE905C0809184009091850037
:1004D000049690938900809388008FEF80935F014A
:1004E00038C0209184003091850080915F01992768
:1004F00087FD9095FC01EE0FFF1FE80FF91FE05AF2
:10050000FE4F81819281820F931F90938900809387
:10051000880080915F01992787FD9095FC01EE0F7F
:10052000FF1FE80FF91FE05AFE4F808186FF11C0C0
:1005300080915F01992787FD9095FC01EE0FFF1FC9
:10054000E80FF91FE05AFE4F808161E08F730E942F
:100550007D0BFF91EF91BF91AF919F918F917F9113
:100560006F915F914F913F912F910F900FBE0F9020
:100570001F90189520915E012C30A0F431E0320FCD
:1005800030935E01FC012083822F90E0FC01EE0F8E
:10059000FF1FE80FF91FE05AFE4F88EB9BE09283A4
:1005A000818308952FEFFC0120830895DF92EF925D
:1005B000FF920F931F93CF93DF93EC01D62E7A0116
:1005C000890188818C3008F066C061E08D2D0E9421
:1005D000440B8881A82FB0E0FD01EE0FFF1FEA0F4A
:1005E000FB1FE05AFE4F2D2D2F739081907C922B94
:1005F000908360E272E06E197F0977FF02C06D5F41
:100600007F4F7595679575956795698340E659E0C5
:10061000401B510B57FF02C04D5F5F4F55954795EB
:10062000559547954A836CE00E942F109CE0899F66
:10063000B001112420E030E0A901460F571FFA0154
:10064000EE0FFF1FE40FF51FE05AFE4F908196FD5D
:1006500016C02F5F3F4F2C30310571F781110FC04D
:100660001092800082E080938100109285001092A9
:100670008400B19A80916F00826080936F008881BE
:1006800090E0FC01EE0FFF1FE80FF91FE05AFE4F4C
:100690008081806480838881DF91CF911F910F9149
:1006A000FF90EF90DF90089520E639E040E252E0BD
:1006B0000C94D602FC01808190E0FC01EE0FFF1F3C
:1006C000E80FF91FE05AFE4F80818F7B80830895E9
:1006D000FC0180818C3070F5918128E830E0291B85
:1006E000310997FD3395220F331F220F331F6217F5
:1006F00073077CF0928128E532E0291B310997FDD0
:100700003395220F331F220F331F621773070CF428
:100710009B0122503109220F331F4FB7F89490E00C
:10072000FC01EE0FFF1FE80FF91FE05AFE4F328366
:1007300021834FBF08954F925F926F927F92AF9245
:10074000BF92CF92DF92EF92FF920F931F93CF93BE
:10075000DF93EC01603282E078070CF040C077FD57
:1007600006C0653B71052CF064EB70E002C060E0F0
:1007700070E0898128E830E0281B310987FD339536
:10078000220F331F220F331F5901CC24B7FCC09412
:10079000DC2C882777FD8095982F2A8148E552E048
:1007A000421B510927FD5395440F551F440F551FF8
:1007B0002A01662457FC6094762C7F926F925F9298
:1007C0004F9214EBE12EF12C00E010E020E030E03D
:1007D000A9010E94D60E0F900F900F900F90CE019E
:1007E000DF91CF911F910F91FF90EF90DF90CF900D
:1007F000BF90AF907F906F905F904F900C94680384
:100800008091B40190E02091B501821B9109089577
:100810002091B5018091B401281750F4E22FF0E047
:10082000EA54FE4F808190E02F5F2093B501089538
:100830008FEF9FEF0895E091B5018091B401E81723
:1008400030F4F0E0EA54FE4F808190E008958FEF9D
:100850009FEF08950895CF92DF92EF92FF920F934A
:100860001F93CF93DF937C01CB018A0120919001EC
:10087000222389F0EB016B01C40ED51ECC15DD05DA
:1008800069F06991D701ED91FC910190F081E02D23
:10089000C7010995F3CF642F0E94EB05C801DF91D2
:1008A000CF911F910F91FF90EF90DF90CF9008951F
:1008B000CF93DF931F92CDB7DEB76983209190016C
:1008C0002223D1F020919101203240F021E030E04C
:1008D000FC013383228380E090E015C08091920177
:1008E000E82FF0E0ED56FE4F998190838F5F809363
:1008F00092018093910105C061E0CE0101960E94B2
:10090000EB0581E090E00F90DF91CF910895FC011D
:100910001382128248EE53E060E070E04483558316
:100920006683778382E191E09183808308951092BA
:10093000B5011092B40110929201109291010C94A1
:100940002E0581E0809390016093B3011092920193
:100950001092910108950C94A1040F93062F21E0A9
:100960004091910163E971E08091B3010E94940587
:100970001092920110929101109290010F9108959E
:100980008F929F92AF92BF92CF92DF92EF92FF929F
:100990000F931F93CF93DF93EC01F62ED42E4801D3
:1009A0005901EE2019F10E94A1041E2D143008F007
:1009B00013E01150B8F0E881F98128E0129FB001EE
:1009C0001124A501940104C05695479537952795A4
:1009D0006A95D2F7CA01B9010190F081E02DCE01EC
:1009E0000995E7CF60E0CE010E94AD044D2D413264
:1009F00008F040E22C2D66EB71E08F2D0E944C0533
:100A00001092B5018093B401DF91CF911F910F91A6
:100A1000FF90EF90DF90CF90BF90AF909F908F901E
:100A20000895CF92EF920F931F93C22EE12C00E016
:100A300010E098010E94C0041F910F91EF90CF9099
:100A4000089521E00C94110521E00C94110561E05A
:100A50000C94AD0484E891E00C9487041092430256
:100A600081E0809341021092400261E082E10E94A5
:100A70007D0B61E083E10E947D0BE9EBF0E080817A
:100A80008E7F808380818D7F808388E48093B8000F
:100A900085E48093BC000895413208F043C09091F2
:100AA00043029111FCCF91E09093430220934102C5
:100AB0002FEF2093D60110921B02240F20931A02CD
:100AC0009093420290914202880F892B80934202B8
:100AD00080914002813061F4109240028091420284
:100AE0008093BB008091BC0083FDF8CF85EC01C0F2
:100AF00085EE8093BC00809143028130E1F38091C8
:100B00001B02841710F440911B022CE132E0FB0120
:100B1000D9018A2F821B841718F48D918193F9CF04
:100B2000842F089580E008950F93413208F04AC061
:100B3000909143029111FCCF92E090934302009375
:100B400041029FEF9093D60110921B0240931A022C
:100B5000FB016CE172E0DB019A2F961B941718F4ED
:100B600091919D93F9CF1092420290914202880F89
:100B7000892B8093420280914002813061F410926F
:100B80004002809142028093BB008091BC0083FDB3
:100B9000F8CF85EC01C085EE8093BC00222321F0C4
:100BA000809143028230E1F38091D6018F3F61F062
:100BB0008091D601803251F08091D601803341F48A
:100BC00083E007C081E005C080E003C082E001C08F
:100BD00084E00F910895613298F42091430224300B
:100BE00089F46093F801FC018AEF91E0DC012A2F7F
:100BF000281B261718F421912D93F9CF80E0089532
:100C000081E0089582E0089585ED8093BC00809195
:100C1000BC0084FDFCCF10924302089585EC8093C4
:100C2000BC001092430208951F920F920FB60F92CC
:100C300011242F933F934F935F936F937F938F93E1
:100C40009F93AF93BF93EF93FF938091B900887FF9
:100C5000803609F49EC078F5883209F45DC090F4BE
:100C6000803109F456C038F4882309F4F5C088307F
:100C700009F44FC0F5C0883109F44EC0803209F440
:100C80005FC0EEC0803409F46AC058F4803309F4C0
:100C900057C0883309F0E4C08093D6010E940E0645
:100CA000DFC0803509F44FC0883509F45DC0883451
:100CB00009F0D6C0D3C0883909F4C4C0A8F4883775
:100CC00009F467C038F4883609F463C0803709F442
:100CD00060C0C6C0883809F4B5C0803909F45FC067
:100CE000803809F0BDC05BC0803B09F483C038F494
:100CF000803A09F466C0883A09F47CC0B1C0803CEF
:100D000009F4A4C0883C09F4A1C0883B09F487C059
:100D1000A7C08091420210C090911B0280911A02DC
:100D2000981770F5E0911B0281E08E0F80931B02F3
:100D3000F0E0E45EFD4F80818093BB0085EC83C0D2
:100D40008093D6018BC0E0911B0281E08E0F8093CF
:100D50001B028091BB00F0E0E45EFD4F8083909128
:100D60001B0280911A026BC0E0911B0281E08E0F82
:100D700080931B028091BB00F0E0E45EFD4F808316
:100D80008091410281116AC081E08093400284EA2F
:100D90005EC083E0809343021092D701CFCF809151
:100DA000D701803208F04EC0E091D70181E08E0F6C
:100DB0008093D7018091BB00F0E0E852FE4F808322
:100DC000BDCF0E940E068091D701803230F4E091B1
:100DD000D701F0E0E852FE4F10826091D70170E039
:100DE000E0913C02F0913D0288ED91E0099510926E
:100DF000D70136C084E0809343021092F90110922B
:100E0000F801E0913E02F0913F0209958091F801CE
:100E1000811105C081E08093F8011092FA01E09100
:100E2000F90181E08E0F8093F901F0E0E650FE4F6A
:100E300080818093BB009091F9018091F80198170F
:100E400008F47CCF85E88093BC000AC085EC8093D1
:100E5000BC001092430204C01092D6010E94040606
:100E6000FF91EF91BF91AF919F918F917F916F9182
:100E70005F914F913F912F910F900FBE0F901F9058
:100E80001895DC01ED91FC910190F081E02D099421
:100E90001F93CF93DF9300D000D0CDB7DEB7162FCE
:100EA00069E270E084E891E029833A834B835C83B4
:100EB0000E94AB041068612F70E084E891E00E940A
:100EC0004107E0918401F091850129813A814B81AC
:100ED0005C81CA01B9017727882799270190F081A1
:100EE000E02D84E891E0099584E891E00F900F905F
:100EF0000F900F90DF91CF911F910C942705CF9306
:100F0000DF93EC0121E030E040E050E060E00E943F
:100F1000480763E070E080E090E00E94B80A23E0B8
:100F200030E040E050E060E0CE01DF91CF910C94E2
:100F30004807FC01108274836383528341830895C0
:100F4000CF93C62F69E270E084E891E00E94AB0481
:100F5000C0686C2F70E084E891E00E94410784E84B
:100F600091E00E94270541E050E069E270E084E8EA
:100F700091E00E94240584E891E00E940804CF914A
:100F800008951F93CF93DF93EC0184E891E00E94D2
:100F9000970462E1CE010E94A007182F40E150E0C3
:100FA000682F8DE492E00E946E0E143489F481E083
:100FB00088836B817C81CE010E94ED0769817A81F3
:100FC000CE010E940708CE010E947F0781E001C088
:100FD00080E0DF91CF911F9108950F931F93CF93DE
:100FE000DF93EC018B018881811103C0CE010E9447
:100FF000C107980140E050E061E0CE010E9448073F
:101000001C830B83DF91CF911F910F9108950F9354
:101010001F93CF93DF93EC018B018881811103C073
:10102000CE010E94C107980140E050E06FE0CE0180
:101030000E9448071A830983DF91CF911F910F9176
:101040000895CF93DF93C62F69E270E084E891E0C2
:101050000E94AB04C0686C2F70E084E891E00E94AD
:10106000410784E891E00E94270542E050E069E2F0
:1010700070E084E891E00E94240584E891E00E94F9
:101080000804EC0184E891E00E94080420E030E0CC
:10109000382FC9018C2B9D2BDF91CF910895AF92F2
:1010A000BF92CF92DF92EF92FF920F931F93CF9355
:1010B000DF93EC017B015A0169018881811103C032
:1010C000CE010E94C10764E1CE010E942108F8010F
:1010D0009183808366E1CE010E942108F70191830C
:1010E000808368E1CE010E942108F501918380830D
:1010F0006AE1CE010E942108F601918380838B81F1
:101100009C81853D910519F154F4009729F1803CAB
:10111000910591F56AE970E080E090E021C0863F9A
:10112000910581F08F3F910541F08B3E910521F5AE
:1011300062E370E080E090E013C063E070E080E084
:1011400090E00EC068E170E080E090E009C065E6E4
:1011500070E080E090E004C06CEB72E080E090E032
:10116000DF91CF911F910F91FF90EF90DF90CF9083
:10117000BF90AF900C94B80ADF91CF911F910F915F
:10118000FF90EF90DF90CF90BF90AF900895FC015B
:101190008FEF818B8787808B828B0895BF92CF9250
:1011A000DF92EF92FF920F931F93CF93DF938C0107
:1011B000C7E0D0E0B12CE62EF12CCC24C394D12C86
:1011C00060E0F80181890E947D0B97010C2E02C01E
:1011D000359527950A94E2F720FF02C061E001C02F
:1011E00060E0F80180890E947D0B61E0F80181894F
:1011F0000E947D0BF80187850E94B30B892B39F083
:1012000096010C2E01C0220F0A94EAF7B22A219708
:10121000B8F68B2DDF91CF911F910F91FF90EF903A
:10122000DF90CF90BF9008954F925F926F927F9220
:101230008F929F92AF92BF92CF92DF92EF92FF92E6
:10124000CF93DF93EC018A898F3F09F03FC06C8513
:1012500084E891E00E94A104E0918401F09185016D
:101260000190F081E02D68EA84E891E0099584E836
:1012700091E00E94270546E06C8584E891E00E9499
:10128000210584E891E00E9400040697D4F384E8E5
:1012900091E00E940804A82E84E891E00E940804CE
:1012A000B82E84E891E00E940804C82E84E891E0FA
:1012B0000E940804D82E84E891E00E940804E82ED9
:1012C00084E891E00E940804F82E34C061E0898926
:1012D0000E947D0B60E08A890E947D0B68EECE0142
:1012E0000E94CE086AE070E080E090E00E94B80AB8
:1012F0006FEFCE010E94CE08A82E6FEFCE010E94A4
:10130000CE08B82E6FEFCE010E94CE08C82E6FEF28
:10131000CE010E94CE08D82E6FEFCE010E94CE08DB
:10132000E82E6FEFCE010E94CE08F82E61E08A8988
:101330000E947D0B6A2D70E07B29882777FD8095C0
:10134000982F0E94300F2B013C01688379838A8398
:101350009B836C2D70E07D29882777FD8095982FE1
:101360000E94300F4B015C016C837D838E839F83D1
:101370006E2D70E07F29882777FD8095982F0E9439
:10138000300F6B017C01688779878A879B878D8501
:101390009E858130910519F182309105E9F1892B03
:1013A00009F05EC029E23CE54FE05CE3C301B20115
:1013B0000E94BC0F688379838A839B8329E23CE582
:1013C0004FE05CE3C501B4010E94BC0F6C837D83D8
:1013D0008E839F8329E23CE54FE05CE339C029E23C
:1013E0003CE54FE85CE3C301B2010E94BC0F688397
:1013F00079838A839B8329E23CE54FE85CE3C5015E
:10140000B4010E94BC0F6C837D838E839F8329E28D
:101410003CE54FE85CE31CC029E23CE54FE85DE3B6
:10142000C301B2010E94BC0F688379838A839B83C6
:1014300029E23CE54FE85DE3C501B4010E94BC0F21
:101440006C837D838E839F8329E23CE54FE85DE3D7
:10145000C701B6010E94BC0F688779878A879B877E
:10146000DF91CF91FF90EF90DF90CF90BF90AF9042
:101470009F908F907F906F905F904F9008951F92F4
:101480000F920FB60F9211242F933F938F939F9338
:10149000AF93BF938091450290914602A09147027D
:1014A000B09148023091440223E0230F2D3720F4FD
:1014B0000196A11DB11D05C026E8230F0296A11DAE
:1014C000B11D209344028093450290934602A0935D
:1014D0004702B09348028091490290914A02A0913C
:1014E0004B02B0914C020196A11DB11D809349029F
:1014F00090934A02A0934B02B0934C02BF91AF91DC
:101500009F918F913F912F910F900FBE0F901F9041
:1015100018952FB7F894609145027091460280911A
:101520004702909148022FBF08953FB7F8948091E9
:10153000490290914A02A0914B02B0914C0226B50B
:10154000A89B05C02F3F19F00196A11DB11D3FBFFB
:101550006627782F892F9A2F620F711D811D911D8B
:1015600042E0660F771F881F991F4A95D1F70895AB
:10157000CF92DF92EF92FF92CF93DF936B017C01CA
:101580000E94950AEB01C114D104E104F10489F031
:101590000E942D0F0E94950A6C1B7D0B683E7340C4
:1015A00090F381E0C81AD108E108F108C851DC4F76
:1015B000EACFDF91CF91FF90EF90DF90CF90089529
:1015C000789484B5826084BD84B5816084BD85B51E
:1015D000826085BD85B5816085BDEEE6F0E08081E5
:1015E00081608083E1E8F0E0108280818260808306
:1015F000808181608083E0E8F0E080818160808389
:10160000E1EBF0E0808184608083E0EBF0E08081BA
:1016100081608083EAE7F0E080818460808380815C
:101620008260808380818160808380818068808304
:101630001092C1000895833081F028F4813099F030
:101640008230A1F008958730A9F08830B9F0843055
:10165000D1F4809180008F7D03C0809180008F77CE
:1016600080938000089584B58F7702C084B58F7D04
:1016700084BD08958091B0008F7703C08091B00041
:101680008F7D8093B0000895CF93DF9390E0FC01AD
:10169000E458FF4F2491FC01E057FF4F84918823C9
:1016A00049F190E0880F991FFC01E854FF4FA59184
:1016B000B49182559F4FFC01C591D4919FB76111A0
:1016C00008C0F8948C91209582238C938881822382
:1016D0000AC0623051F4F8948C91322F30958323F4
:1016E0008C938881822B888304C0F8948C91822B00
:1016F0008C939FBFDF91CF9108950F931F93CF934A
:10170000DF931F92CDB7DEB7282F30E0F901E859FB
:10171000FF4F8491F901E458FF4F1491F901E0570C
:10172000FF4F04910023C9F0882321F069830E94B0
:101730001B0B6981E02FF0E0EE0FFF1FE255FF4F1A
:10174000A591B4919FB7F8948C91611103C0109545
:10175000812301C0812B8C939FBF0F90DF91CF918C
:101760001F910F910895CF93DF93282F30E0F90157
:10177000E859FF4F8491F901E458FF4FD491F901E2
:10178000E057FF4FC491CC2391F081110E941B0BB5
:10179000EC2FF0E0EE0FFF1FEC55FF4FA591B49139
:1017A0002C912D2381E090E021F480E002C080E0C4
:1017B00090E0DF91CF910895FC01818D228D90E022
:1017C000805C9F4F821B91098F7399270895FC01BC
:1017D000918D828D981731F0828DE80FF11D858DE6
:1017E00090E008958FEF9FEF0895FC01918D828D19
:1017F000981761F0828DDF01A80FB11D5D968C9165
:10180000928D9F5F9F73928F90E008958FEF9FEF6F
:10181000089589E79DE0892B49F080E090E0892BCD
:1018200029F00E94790D81110C9400000895FC01AB
:10183000848DDF01A80FB11DA35ABF4F2C91848D59
:1018400090E001968F739927848FA689B7892C938E
:10185000A089B1898C9180648C93938D848D981329
:1018600006C00288F389E02D80818F7D80830895F2
:10187000CF93DF93EC01888D8823C9F0EA89FB8937
:10188000808185FD05C0A889B9898C9186FD0FC02E
:101890000FB607FCF5CF808185FFF2CFA889B98903
:1018A0008C9185FFEDCFCE010E94170CE7CFDF9121
:1018B000CF910895CF92DF92FF920F931F93CF9312
:1018C000DF931F92CDB7DEB76C0181E0D601589649
:1018D0008C9358975B969C915B975C968C915C97E8
:1018E000981307C05096ED91FC915197808185FD2A
:1018F0002EC0F601038D10E00F5F1F4F0F731127ED
:10190000F02EF601848DF81211C00FB607FCF9CF46
:10191000D6015096ED91FC915197808185FFF1CFD2
:10192000C60169830E94170C6981EBCF838DE80F94
:10193000F11DE35AFF4F6083D6015B960C935B97D2
:101940005296ED91FC915397808180620CC0D60134
:101950005696ED91FC91579760835096ED91FC91CE
:10196000519780818064808381E090E00F90DF91C7
:10197000CF911F910F91FF90DF90CF900895BF926C
:10198000CF92DF92EF92FF92CF93DF93EC016A0147
:101990007B01B22EE889F98982E08083411581EECE
:1019A000580761057105A1F060E079E08DE390E0F2
:1019B000A70196010E943B102150310941095109AC
:1019C0005695479537952795211580E1380798F06A
:1019D000E889F989108260E874E88EE190E0A70157
:1019E00096010E943B102150310941095109569539
:1019F000479537952795EC85FD853083EE85FF85E6
:101A00002083188EEC89FD89B082EA89FB89808168
:101A100080618083EA89FB89808188608083EA898C
:101A2000FB89808180688083EA89FB8980818F7D42
:101A30008083DF91CF91FF90EF90DF90CF90BF90A8
:101A400008951F920F920FB60F9211242F938F9328
:101A50009F93EF93FF93E0915D02F0915E0280818E
:101A6000E0916302F091640282FD12C09081809146
:101A700066028F5F8F7320916702821751F0E091A9
:101A80006602F0E0E35BFD4F958F8093660201C034
:101A90008081FF91EF919F918F912F910F900FBEB9
:101AA0000F901F9018951F920F920FB60F9211244E
:101AB0002F933F934F935F936F937F938F939F9356
:101AC000AF93BF93EF93FF938DE492E00E94170CC6
:101AD000FF91EF91BF91AF919F918F917F916F9106
:101AE0005F914F913F912F910F900FBE0F901F90DC
:101AF00018958DE492E00E94DC0B21E0892B09F41B
:101B000020E0822F08951092500210924F0288EE2A
:101B100093E0A0E0B0E08093510290935202A09332
:101B20005302B093540282E291E090934E0280936C
:101B30004D0285EC90E090935A028093590284EC18
:101B400090E090935C0280935B0280EC90E0909335
:101B50005E0280935D0281EC90E09093600280933E
:101B60005F0282EC90E0909362028093610286ECC7
:101B700090E0909364028093630210926602109248
:101B8000670210926802109269020895CF92DF9264
:101B9000EF92FF920F931F93CF93DF937C016A0123
:101BA000EB0100E010E00C151D0571F06991D70103
:101BB000ED91FC910190F081E02DC7010995892BF1
:101BC00019F00F5F1F4FEFCFC801DF91CF911F9129
:101BD0000F91FF90EF90DF90CF9008956115710500
:101BE00081F0DB010D900020E9F7AD014150510972
:101BF000461B570BDC01ED91FC910280F381E02D37
:101C0000099480E090E008956EE271E00C94EE0D8E
:101C10008F929F92AF92BF92CF92DF92EF92FF92FC
:101C20000F931F93CF93DF93CDB7DEB7A1970FB676
:101C3000F894DEBF0FBECDBF7C01C42EE52FCB01D3
:101C4000D22E19A221E02D1510F02AE0D22E8E01FD
:101C50000F5D1F4F8D2C912CA12CB12C6C2D7E2F44
:101C6000A50194010E943B108C2DD29E8019112455
:101C7000015011098A3014F4805D01C0895CF801BB
:101C80008083211531054105510521F0C22EE32F36
:101C9000CA01E4CFB801C7010E94EE0DA1960FB6AC
:101CA000F894DEBF0FBECDBFDF91CF911F910F9192
:101CB000FF90EF90DF90CF90BF90AF909F908F906C
:101CC00008952115310541F4DC01ED91FC9101905D
:101CD000F081E02D642F09940C94080E0F931F934C
:101CE000CF93DF93EC019A01462F50E060E070E063
:101CF0000E94610E8C01CE010E94040E800F911F84
:101D0000DF91CF911F910F9108950F931F93CF9360
:101D1000DF93EC010E94890A688779878A879B870D
:101D2000E881F9810680F781E02DCE01099597FFC2
:101D300015C00E94890A088519852A853B85601B84
:101D4000710B820B930B0C811D812E813F816017DB
:101D500071078207930720F38FEF9FEFDF91CF91F9
:101D60001F910F910895CF92DF92EF92FF920F9300
:101D70001F93CF93DF937C016A01EB0100E010E039
:101D80000C151D0549F0C7010E94850E97FD04C082
:101D900089930F5F1F4FF4CFC801DF91CF911F913F
:101DA0000F91FF90EF90DF90CF9008954F925F9248
:101DB0006F927F92AF92BF92CF92DF92EF92FF929B
:101DC0000F931F93CF93DF93CDB7DEB729013A016D
:101DD000621B730B840B950B29893A894B895C89AB
:101DE0002A193B094C095D09298B3A8B4B8B5C8B7B
:101DF0009B01AC0169897A898B899C890E941F109B
:101E0000E418F50806091709A80197010E945D105A
:101E10002A0D3B1D4C1D5D1DCA01B901DF91CF91FB
:101E20001F910F91FF90EF90DF90CF90BF90AF90F8
:101E30007F906F905F904F90089508950E94E00A00
:101E40000E941D0F0E948E00C9E0DCE00E94CB00C2
:101E50002097E1F30E94090CF9CF0895E89409C096
:101E600097FB3EF490958095709561957F4F8F4FCD
:101E70009F4F9923A9F0F92F96E9BB279395F695E3
:101E8000879577956795B795F111F8CFFAF4BB0F61
:101E900011F460FF1BC06F5F7F4F8F4F9F4F16C0C5
:101EA000882311F096E911C0772321F09EE8872F4F
:101EB000762F05C0662371F096E8862F70E060E00B
:101EC0002AF09A95660F771F881FDAF7880F969584
:101ED000879597F9089597F99F6780E870E060E02B
:101EE00008959FEF80EC089500240A9416161706B3
:101EF00018060906089500240A94121613061406FB
:101F000005060895092E0394000C11F4882352F05D
:101F1000BB0F40F4BF2B11F460FF04C06F5F7F4F15
:101F20008F4F9F4F089557FD9058440F551F59F0FC
:101F30005F3F71F04795880F97FB991F61F09F3FB6
:101F400079F087950895121613061406551FF2CFDF
:101F50004695F1DF08C0161617061806991FF1CF2F
:101F600086957105610508940895E894BB27662756
:101F70007727CB0197F908950BD0C4CFB5DF28F0B0
:101F8000BADF18F0952309F0A6CFABCF1124EECF1E
:101F9000CADFA0F3959FD1F3950F50E0551F629FC4
:101FA000F001729FBB27F00DB11D639FAA27F00DB2
:101FB000B11DAA1F649F6627B00DA11D661F829FD9
:101FC0002227B00DA11D621F739FB00DA11D621FBE
:101FD000839FA00D611D221F749F3327A00D611DDB
:101FE000231F849F600D211D822F762F6A2F1124BD
:101FF0009F5750408AF0E1F088234AF0EE0FFF1F10
:10200000BB1F661F771F881F91505040A9F79E3F46
:10201000510570F060CFAACF5F3FECF3983EDCF340
:10202000869577956795B795F795E7959F5FC1F783
:10203000FE2B880F911D9695879597F90895DB01E2
:102040008F939F930E947C10BF91AF91A29F800DB0
:10205000911DA39F900DB29F900D11240895991B7F
:1020600079E004C0991F961708F0961B881F7A958F
:10207000C9F780950895A1E21A2EAA1BBB1BFD018A
:102080000DC0AA1FBB1FEE1FFF1FA217B307E40757
:10209000F50720F0A21BB30BE40BF50B661F771FAF
:1020A000881F991F1A9469F760957095809590958F
:1020B0009B01AC01BD01CF010895052E97FB1EF4D5
:1020C00000940E94741057FD07D00E943B1007FC3B
:1020D00003D04EF40C947410509540953095219592
:1020E0003F4F4F4F5F4F0895909580957095619544
:1020F0007F4F8F4F9F4F08950E948D10A59F900D89
:10210000B49F900DA49F800D911D11240895EE0F92
:10211000FF1F0590F491E02D0994A29FB001B39F99
:10212000C001A39F700D811D1124911DB29F700DE0
:0C213000811D1124911D0895F894FFCF2B
:10213C000000EA0280000100000009000A00000013
:10214C00000058042B04000408041B042A0400009B
:10215C0000005A0CC60DDC0BF50BE70B380C0D0A06
:10216C00006E616E00696E66006F7666002E000070
:107E0000112484B714BE81FFF0D085E080938100F7
:107E100082E08093C00088E18093C10086E0809377
:107E2000C20080E18093C4008EE0C9D0259A86E02C
:107E300020E33CEF91E0309385002093840096BBD3
:107E4000B09BFECF1D9AA8958150A9F7CC24DD24C4
:107E500088248394B5E0AB2EA1E19A2EF3E0BF2EE7
:107E6000A2D0813461F49FD0082FAFD0023811F036
:107E7000013811F484E001C083E08DD089C08234E0
:107E800011F484E103C0853419F485E0A6D080C0E4
:107E9000853579F488D0E82EFF2485D0082F10E0AE
:107EA000102F00270E291F29000F111F8ED06801E7
:107EB0006FC0863521F484E090D080E0DECF843638
:107EC00009F040C070D06FD0082F6DD080E0C81688
:107ED00080E7D80618F4F601B7BEE895C0E0D1E017
:107EE00062D089930C17E1F7F0E0CF16F0E7DF06D8
:107EF00018F0F601B7BEE89568D007B600FCFDCFD4
:107F0000A601A0E0B1E02C9130E011968C91119780
:107F100090E0982F8827822B932B1296FA010C0160
:107F200087BEE89511244E5F5F4FF1E0A038BF0790
:107F300051F7F601A7BEE89507B600FCFDCF97BE46
:107F4000E89526C08437B1F42ED02DD0F82E2BD052
:107F50003CD0F601EF2C8F010F5F1F4F84911BD097
:107F6000EA94F801C1F70894C11CD11CFA94CF0C13
:107F7000D11C0EC0853739F428D08EE10CD085E9AC
:107F80000AD08FE07ACF813511F488E018D01DD067
:107F900080E101D065CF982F8091C00085FFFCCF94
:107FA0009093C60008958091C00087FFFCCF809118
:107FB000C00084FD01C0A8958091C6000895E0E648
:107FC000F0E098E1908380830895EDDF803219F02E
:107FD00088E0F5DFFFCF84E1DECF1F93182FE3DFCA
:107FE0001150E9F7F2DF1F91089580E0E8DFEE27F6
:047FF000FF270994CA
:027FFE00040479
:0400000300007E007B
:00000001FF
